Component: ARM Compiler 5.05 (build 41) Tool: armlink [4d0eb9]

==============================================================================

Section Cross References

    startup_stm32f429_439xx.o(STACK) refers (Special) to heapauxi.o(.text) for __use_two_region_memory
    startup_stm32f429_439xx.o(HEAP) refers (Special) to heapauxi.o(.text) for __use_two_region_memory
    startup_stm32f429_439xx.o(RESET) refers (Special) to heapauxi.o(.text) for __use_two_region_memory
    startup_stm32f429_439xx.o(RESET) refers to startup_stm32f429_439xx.o(STACK) for __initial_sp
    startup_stm32f429_439xx.o(RESET) refers to startup_stm32f429_439xx.o(.text) for Reset_Handler
    startup_stm32f429_439xx.o(RESET) refers to stm32f4xx_it.o(.text) for NMI_Handler
    startup_stm32f429_439xx.o(RESET) refers to cpu.o(.text) for PendSV_Handler
    startup_stm32f429_439xx.o(RESET) refers to usart1.o(.text) for USART1_IRQHandler
    startup_stm32f429_439xx.o(.text) refers (Special) to heapauxi.o(.text) for __use_two_region_memory
    startup_stm32f429_439xx.o(.text) refers to system_stm32f4xx.o(.text) for SystemInit
    startup_stm32f429_439xx.o(.text) refers to __main.o(!!!main) for __main
    startup_stm32f429_439xx.o(.text) refers to startup_stm32f429_439xx.o(HEAP) for Heap_Mem
    startup_stm32f429_439xx.o(.text) refers to startup_stm32f429_439xx.o(STACK) for Stack_Mem
    sys.o(.text) refers to system_stm32f4xx.o(.data) for SystemCoreClock
    delay.o(.text) refers to misc.o(.text) for SysTick_CLKSourceConfig
    delay.o(.text) refers to system_stm32f4xx.o(.data) for SystemCoreClock
    delay.o(.text) refers to delay.o(.data) for fac_us
    usart1.o(.rev16_text) refers (Special) to use_no_semi_2.o(.text) for __use_no_semihosting
==============================================================================

Removing Unused input sections from the image.

    Removing sys.o(.rev16_text), (4 bytes).
    Removing sys.o(.revsh_text), (4 bytes).
    Removing delay.o(.rev16_text), (4 bytes).
    Removing delay.o(.revsh_text), (4 bytes).
    Removing delay.o(.text), (212 bytes).
    Removing delay.o(.data), (4 bytes).
    Removing usart1.o(.rev16_text), (4 bytes).
    Removing usart1.o(.revsh_text), (4 bytes).
    Removing stm32f4xx_gpio.o(.rev16_text), (4 bytes).
    Removing stm32f4xx_gpio.o(.revsh_text), (4 bytes).
    Removing stm32f4xx_rcc.o(.rev16_text), (4 bytes).
    Removing stm32f4xx_rcc.o(.revsh_text), (4 bytes).
    Removing misc.o(.rev16_text), (4 bytes).
    Removing misc.o(.revsh_text), (4 bytes).
    Removing stm32f4xx_usart.o(.rev16_text), (4 bytes).
    Removing stm32f4xx_usart.o(.revsh_text), (4 bytes).
    Removing led.o(.rev16_text), (4 bytes).
    Removing led.o(.revsh_text), (4 bytes).
==============================================================================

Image Symbol Table

    Local Symbols

    Symbol Name                              Value     Ov Type        Size  Object(Section)

    ../clib/angel/boardlib.s                 0x00000000   Number         0  boardshut.o ABSOLUTE
    ../clib/angel/boardlib.s                 0x00000000   Number         0  boardinit1.o ABSOLUTE
    ../clib/angel/boardlib.s                 0x00000000   Number         0  boardinit2.o ABSOLUTE
    ../clib/angel/boardlib.s                 0x00000000   Number         0  boardinit3.o ABSOLUTE
    ../clib/angel/handlers.s                 0x00000000   Number         0  __scatter_zi.o ABSOLUTE
    ../clib/angel/handlers.s                 0x00000000   Number         0  __scatter_copy.o ABSOLUTE
    ../clib/angel/kernel.s                   0x00000000   Number         0  __rtentry.o ABSOLUTE
    ../clib/angel/kernel.s                   0x00000000   Number         0  __rtentry4.o ABSOLUTE
    ../clib/angel/kernel.s                   0x00000000   Number         0  __rtentry2.o ABSOLUTE
    ../clib/angel/kernel.s                   0x00000000   Number         0  rtexit2.o ABSOLUTE
    ../clib/angel/kernel.s                   0x00000000   Number         0  rtexit.o ABSOLUTE
    ../clib/angel/rt.s                       0x00000000   Number         0  rt_raise.o ABSOLUTE
    ../clib/angel/scatter.s                  0x00000000   Number         0  __scatter.o ABSOLUTE
    ../clib/angel/startup.s                  0x00000000   Number         0  __main.o ABSOLUTE
    ../clib/angel/sys.s                      0x00000000   Number         0  indicate_semi.o ABSOLUTE
    ../clib/angel/sys.s                      0x00000000   Number         0  use_no_semi_2.o ABSOLUTE
    ../clib/angel/sys.s                      0x00000000   Number         0  libspace.o ABSOLUTE
    ../clib/angel/sys.s                      0x00000000   Number         0  use_no_semi.o ABSOLUTE
    ../clib/angel/sys.s                      0x00000000   Number         0  sys_stackheap_outer.o ABSOLUTE
    ../clib/angel/sysapp.c                   0x00000000   Number         0  sys_command.o ABSOLUTE
    ../clib/angel/sysapp.c                   0x00000000   Number         0  sys_wrch.o ABSOLUTE
    ../clib/armsys.c                         0x00000000   Number         0  no_argv.o ABSOLUTE
    ../clib/armsys.c                         0x00000000   Number         0  _get_argv_nomalloc.o ABSOLUTE
    ../clib/armsys.c                         0x00000000   Number         0  argv_veneer.o ABSOLUTE
    ../clib/armsys.c                         0x00000000   Number         0  argv_veneer.o ABSOLUTE
    ../clib/heapalloc.c                      0x00000000   Number         0  hrguard.o ABSOLUTE
    ../clib/heapaux.c                        0x00000000   Number         0  heapauxi.o ABSOLUTE
    ../clib/libinit.s                        0x00000000   Number         0  libshutdown.o ABSOLUTE
    ../clib/libinit.s                        0x00000000   Number         0  libinit2.o ABSOLUTE
    ../clib/libinit.s                        0x00000000   Number         0  libshutdown2.o ABSOLUTE
    ../clib/libinit.s                        0x00000000   Number         0  libinit.o ABSOLUTE
    ../clib/printf.c                         0x00000000   Number         0  __printf_nopercent.o ABSOLUTE
    ../clib/printf.c                         0x00000000   Number         0  _printf_char_file.o ABSOLUTE
    ../clib/printf.c                         0x00000000   Number         0  __2printf.o ABSOLUTE
    ../clib/printf.c                         0x00000000   Number         0  noretval__2printf.o ABSOLUTE
    ../clib/printf.c                         0x00000000   Number         0  _printf_char_common.o ABSOLUTE
    ../clib/signal.c                         0x00000000   Number         0  defsig_cppl_inner.o ABSOLUTE
    ../clib/signal.c                         0x00000000   Number         0  defsig_pvfn_inner.o ABSOLUTE
    ../clib/signal.c                         0x00000000   Number         0  defsig_segv_inner.o ABSOLUTE
    ../clib/signal.c                         0x00000000   Number         0  defsig_stak_inner.o ABSOLUTE
    ../clib/signal.c                         0x00000000   Number         0  defsig_rtred_inner.o ABSOLUTE
    ../clib/signal.c                         0x00000000   Number         0  defsig_other.o ABSOLUTE
    ../clib/signal.c                         0x00000000   Number         0  defsig_fpe_inner.o ABSOLUTE
    ../clib/signal.c                         0x00000000   Number         0  defsig_abrt_inner.o ABSOLUTE
    ../clib/signal.c                         0x00000000   Number         0  defsig_rtmem_outer.o ABSOLUTE
    ../clib/signal.c                         0x00000000   Number         0  defsig_general.o ABSOLUTE
    ../clib/signal.c                         0x00000000   Number         0  defsig_rtmem_formal.o ABSOLUTE
    ../clib/signal.c                         0x00000000   Number         0  __raise.o ABSOLUTE
    ../clib/signal.c                         0x00000000   Number         0  defsig_rtmem_inner.o ABSOLUTE
    ../clib/signal.c                         0x00000000   Number         0  defsig_exit.o ABSOLUTE
    ../clib/signal.s                         0x00000000   Number         0  defsig.o ABSOLUTE
    ../clib/stdio.c                          0x00000000   Number         0  ferror_locked.o ABSOLUTE
    ../clib/stdio.c                          0x00000000   Number         0  ferror.o ABSOLUTE
    ../clib/stdlib.c                         0x00000000   Number         0  exit.o ABSOLUTE
    ../fplib/fpinit.s                        0x00000000   Number         0  fpinit.o ABSOLUTE
    ..\HARDWARE\LED\led.c                    0x00000000   Number         0  led.o ABSOLUTE
    ..\STM32F4xx_StdPeriph_Driver\src\misc.c 0x00000000   Number         0  misc.o ABSOLUTE
    ..\STM32F4xx_StdPeriph_Driver\src\stm32f4xx_gpio.c 0x00000000   Number         0  stm32f4xx_gpio.o ABSOLUTE
    ..\STM32F4xx_StdPeriph_Driver\src\stm32f4xx_rcc.c 0x00000000   Number         0  stm32f4xx_rcc.o ABSOLUTE
    ..\STM32F4xx_StdPeriph_Driver\src\stm32f4xx_usart.c 0x00000000   Number         0  stm32f4xx_usart.o ABSOLUTE
    ..\SYSTEM\delay\delay.c                  0x00000000   Number         0  delay.o ABSOLUTE
    ..\SYSTEM\sys\sys.c                      0x00000000   Number         0  sys.o ABSOLUTE
    ..\SYSTEM\usart1\usart1.c                0x00000000   Number         0  usart1.o ABSOLUTE
    ..\\HARDWARE\\LED\\led.c                 0x00000000   Number         0  led.o ABSOLUTE
    ..\\STM32F4xx_StdPeriph_Driver\\src\\misc.c 0x00000000   Number         0  misc.o ABSOLUTE
    ..\\STM32F4xx_StdPeriph_Driver\\src\\stm32f4xx_gpio.c 0x00000000   Number         0  stm32f4xx_gpio.o ABSOLUTE
    ..\\STM32F4xx_StdPeriph_Driver\\src\\stm32f4xx_rcc.c 0x00000000   Number         0  stm32f4xx_rcc.o ABSOLUTE
    ..\\STM32F4xx_StdPeriph_Driver\\src\\stm32f4xx_usart.c 0x00000000   Number         0  stm32f4xx_usart.o ABSOLUTE
    ..\\SYSTEM\\delay\\delay.c               0x00000000   Number         0  delay.o ABSOLUTE
    ..\\SYSTEM\\sys\\sys.c                   0x00000000   Number         0  sys.o ABSOLUTE
    ..\\SYSTEM\\usart1\\usart1.c             0x00000000   Number         0  usart1.o ABSOLUTE
    ..\raw-os\kernel\raw_block.c             0x00000000   Number         0  raw_block.o ABSOLUTE
    ..\raw-os\kernel\raw_byte.c              0x00000000   Number         0  raw_byte.o ABSOLUTE
    ..\raw-os\kernel\raw_event.c             0x00000000   Number         0  raw_event.o ABSOLUTE
    ..\raw-os\kernel\raw_idle.c              0x00000000   Number         0  raw_idle.o ABSOLUTE
    ..\raw-os\kernel\raw_idle_event.c        0x00000000   Number         0  raw_idle_event.o ABSOLUTE
    ..\raw-os\kernel\raw_mqueue.c            0x00000000   Number         0  raw_mqueue.o ABSOLUTE
    ..\raw-os\kernel\raw_mutex.c             0x00000000   Number         0  raw_mutex.o ABSOLUTE
    ..\raw-os\kernel\raw_obj.c               0x00000000   Number         0  raw_obj.o ABSOLUTE
    ..\raw-os\kernel\raw_pend.c              0x00000000   Number         0  raw_pend.o ABSOLUTE
    ..\raw-os\kernel\raw_queue.c             0x00000000   Number         0  raw_queue.o ABSOLUTE
    ..\raw-os\kernel\raw_queue_buffer.c      0x00000000   Number         0  raw_queue_buffer.o ABSOLUTE
    ..\raw-os\kernel\raw_queue_size.c        0x00000000   Number         0  raw_queue_size.o ABSOLUTE
    ..\raw-os\kernel\raw_sched.c             0x00000000   Number         0  raw_sched.o ABSOLUTE
    ..\raw-os\kernel\raw_sem.c               0x00000000   Number         0  raw_sem.o ABSOLUTE
    ..\raw-os\kernel\raw_stat.c              0x00000000   Number         0  raw_stat.o ABSOLUTE
    ..\raw-os\kernel\raw_stm.c               0x00000000   Number         0  raw_stm.o ABSOLUTE
    ..\raw-os\kernel\raw_system.c            0x00000000   Number         0  raw_system.o ABSOLUTE
    ..\raw-os\kernel\raw_task.c              0x00000000   Number         0  raw_task.o ABSOLUTE
    ..\raw-os\kernel\raw_task_0.c            0x00000000   Number         0  raw_task_0.o ABSOLUTE
    ..\raw-os\kernel\raw_task_queue_size.c   0x00000000   Number         0  raw_task_queue_size.o ABSOLUTE
    ..\raw-os\kernel\raw_task_sem.c          0x00000000   Number         0  raw_task_sem.o ABSOLUTE
    ..\raw-os\kernel\raw_tick.c              0x00000000   Number         0  raw_tick.o ABSOLUTE
    ..\raw-os\kernel\raw_timer.c             0x00000000   Number         0  raw_timer.o ABSOLUTE
    ..\raw-os\port\cpu.asm                   0x00000000   Number         0  cpu.o ABSOLUTE
    ..\raw-os\port\port.c                    0x00000000   Number         0  port.o ABSOLUTE
    ..\raw-os\port\port_hook.c               0x00000000   Number         0  port_hook.o ABSOLUTE
    ..\raw-os\port\raw_trace_port.c          0x00000000   Number         0  raw_trace_port.o ABSOLUTE
    dc.s                                     0x00000000   Number         0  dc.o ABSOLUTE
    led_task.c                               0x00000000   Number         0  led_task.o ABSOLUTE
    led_task.c                               0x00000000   Number         0  led_task.o ABSOLUTE
    main.c                                   0x00000000   Number         0  main.o ABSOLUTE
    main.c                                   0x00000000   Number         0  main.o ABSOLUTE
    startup_stm32f429_439xx.s                0x00000000   Number         0  startup_stm32f429_439xx.o ABSOLUTE
    stm32f4xx_it.c                           0x00000000   Number         0  stm32f4xx_it.o ABSOLUTE
    stm32f4xx_it.c                           0x00000000   Number         0  stm32f4xx_it.o ABSOLUTE
    system_stm32f4xx.c                       0x00000000   Number         0  system_stm32f4xx.o ABSOLUTE
    system_stm32f4xx.c                       0x00000000   Number         0  system_stm32f4xx.o ABSOLUTE
    RESET                                    0x08000000   Section      428  startup_stm32f429_439xx.o(RESET)
    !!!main                                  0x080001ac   Section        8  __main.o(!!!main)
    !!!scatter                               0x080001b4   Section       52  __scatter.o(!!!scatter)
    !!handler_copy                           0x080001e8   Section       26  __scatter_copy.o(!!handler_copy)
    !!handler_zi                             0x08000204   Section       28  __scatter_zi.o(!!handler_zi)
    .ARM.Collect$$libinit$$00000000          0x08000220   Section        2  libinit.o(.ARM.Collect$$libinit$$00000000)
    .ARM.Collect$$libinit$$00000001          0x08000222   Section        4  libinit2.o(.ARM.Collect$$libinit$$00000001)
    .ARM.Collect$$libinit$$00000004          0x08000226   Section        0  libinit2.o(.ARM.Collect$$libinit$$00000004)
    .ARM.Collect$$libinit$$0000000A          0x08000226   Section        0  libinit2.o(.ARM.Collect$$libinit$$0000000A)
    .ARM.Collect$$libinit$$0000000C          0x08000226   Section        0  libinit2.o(.ARM.Collect$$libinit$$0000000C)
    .ARM.Collect$$libinit$$0000000E          0x08000226   Section        0  libinit2.o(.ARM.Collect$$libinit$$0000000E)
    .ARM.Collect$$libinit$$00000011          0x08000226   Section        0  libinit2.o(.ARM.Collect$$libinit$$00000011)
    .ARM.Collect$$libinit$$00000013          0x08000226   Section        0  libinit2.o(.ARM.Collect$$libinit$$00000013)
    .ARM.Collect$$libinit$$00000015          0x08000226   Section        0  libinit2.o(.ARM.Collect$$libinit$$00000015)
    .ARM.Collect$$libinit$$00000017          0x08000226   Section        0  libinit2.o(.ARM.Collect$$libinit$$00000017)
    .ARM.Collect$$libinit$$00000019          0x08000226   Section        0  libinit2.o(.ARM.Collect$$libinit$$00000019)
    .ARM.Collect$$libinit$$0000001B          0x08000226   Section        0  libinit2.o(.ARM.Collect$$libinit$$0000001B)
    .ARM.Collect$$libinit$$0000001D          0x08000226   Section        0  libinit2.o(.ARM.Collect$$libinit$$0000001D)
    .ARM.Collect$$libinit$$0000001F          0x08000226   Section        0  libinit2.o(.ARM.Collect$$libinit$$0000001F)
    .ARM.Collect$$libinit$$00000021          0x08000226   Section        0  libinit2.o(.ARM.Collect$$libinit$$00000021)
    .ARM.Collect$$libinit$$00000023          0x08000226   Section        0  libinit2.o(.ARM.Collect$$libinit$$00000023)
    .ARM.Collect$$libinit$$00000025          0x08000226   Section        0  libinit2.o(.ARM.Collect$$libinit$$00000025)
    .ARM.Collect$$libinit$$0000002C          0x08000226   Section        0  libinit2.o(.ARM.Collect$$libinit$$0000002C)
    .ARM.Collect$$libinit$$0000002E          0x08000226   Section        0  libinit2.o(.ARM.Collect$$libinit$$0000002E)
    .ARM.Collect$$libinit$$00000030          0x08000226   Section        0  libinit2.o(.ARM.Collect$$libinit$$00000030)
    .ARM.Collect$$libinit$$00000032          0x08000226   Section        0  libinit2.o(.ARM.Collect$$libinit$$00000032)
    .ARM.Collect$$libinit$$00000033          0x08000226   Section        2  libinit2.o(.ARM.Collect$$libinit$$00000033)
    .ARM.Collect$$libshutdown$$00000000      0x08000228   Section        2  libshutdown.o(.ARM.Collect$$libshutdown$$00000000)
    .ARM.Collect$$libshutdown$$00000003      0x0800022a   Section        0  libshutdown2.o(.ARM.Collect$$libshutdown$$00000003)
    .ARM.Collect$$libshutdown$$00000006      0x0800022a   Section        0  libshutdown2.o(.ARM.Collect$$libshutdown$$00000006)
    .ARM.Collect$$libshutdown$$00000009      0x0800022a   Section        0  libshutdown2.o(.ARM.Collect$$libshutdown$$00000009)
    .ARM.Collect$$libshutdown$$0000000B      0x0800022a   Section        0  libshutdown2.o(.ARM.Collect$$libshutdown$$0000000B)
    .ARM.Collect$$libshutdown$$0000000E      0x0800022a   Section        0  libshutdown2.o(.ARM.Collect$$libshutdown$$0000000E)
    .ARM.Collect$$libshutdown$$0000000F      0x0800022a   Section        2  libshutdown2.o(.ARM.Collect$$libshutdown$$0000000F)
    .ARM.Collect$$rtentry$$00000000          0x0800022c   Section        0  __rtentry.o(.ARM.Collect$$rtentry$$00000000)
    .ARM.Collect$$rtentry$$00000002          0x0800022c   Section        0  __rtentry2.o(.ARM.Collect$$rtentry$$00000002)
    .ARM.Collect$$rtentry$$00000004          0x0800022c   Section        6  __rtentry4.o(.ARM.Collect$$rtentry$$00000004)
    .ARM.Collect$$rtentry$$00000009          0x08000232   Section        0  __rtentry2.o(.ARM.Collect$$rtentry$$00000009)
    .ARM.Collect$$rtentry$$0000000A          0x08000232   Section        4  __rtentry2.o(.ARM.Collect$$rtentry$$0000000A)
    .ARM.Collect$$rtentry$$0000000C          0x08000236   Section        0  __rtentry2.o(.ARM.Collect$$rtentry$$0000000C)
    .ARM.Collect$$rtentry$$0000000D          0x08000236   Section        8  __rtentry2.o(.ARM.Collect$$rtentry$$0000000D)
    .ARM.Collect$$rtexit$$00000000           0x0800023e   Section        2  rtexit.o(.ARM.Collect$$rtexit$$00000000)
    .ARM.Collect$$rtexit$$00000002           0x08000240   Section        0  rtexit2.o(.ARM.Collect$$rtexit$$00000002)
    .ARM.Collect$$rtexit$$00000003           0x08000240   Section        4  rtexit2.o(.ARM.Collect$$rtexit$$00000003)
    .ARM.Collect$$rtexit$$00000004           0x08000244   Section        6  rtexit2.o(.ARM.Collect$$rtexit$$00000004)
    .text                                    0x0800024c   Section       64  startup_stm32f429_439xx.o(.text)
    $v0                                      0x0800024c   Number         0  startup_stm32f429_439xx.o(.text)
    .text                                    0x0800028c   Section        0  sys.o(.text)
    .text                                    0x080002e8   Section        0  usart1.o(.text)
    .text                                    0x08000400   Section        0  stm32f4xx_gpio.o(.text)
    .text                                    0x08000694   Section        0  stm32f4xx_rcc.o(.text)
    .text                                    0x08000ccc   Section        0  misc.o(.text)
    .text                                    0x08000dac   Section        0  stm32f4xx_usart.o(.text)
    .text                                    0x08001200   Section        0  led.o(.text)
    .text                                    0x080012f4   Section        0  raw_event.o(.text)
    .text                                    0x080016fc   Section        0  raw_idle.o(.text)
    .text                                    0x0800172c   Section        0  raw_mutex.o(.text)
    release_mutex                            0x080017f1   Thumb Code   110  raw_mutex.o(.text)
    is_list_empty                            0x08001d91   Thumb Code    16  raw_mutex.o(.text)
    .text                                    0x08001da4   Section        0  raw_pend.o(.text)
    list_insert                              0x08001da5   Thumb Code    14  raw_pend.o(.text)
    add_to_priority_list                     0x08001dd7   Thumb Code    50  raw_pend.o(.text)
    bit_set                                  0x08001e09   Thumb Code    26  raw_pend.o(.text)
    pend_task_wake_up                        0x08001f51   Thumb Code   100  raw_pend.o(.text)
    list_delete                              0x080020bf   Thumb Code    14  raw_pend.o(.text)
    .text                                    0x080020e0   Section        0  raw_queue.o(.text)
    is_list_empty                            0x08002841   Thumb Code    16  raw_queue.o(.text)
    .text                                    0x0800285c   Section        0  raw_queue_size.o(.text)
    is_list_empty                            0x08002f5f   Thumb Code    16  raw_queue_size.o(.text)
    .text                                    0x08002f78   Section        0  raw_sched.o(.text)
    .text                                    0x080031c4   Section        0  raw_sem.o(.text)
    is_list_empty                            0x0800370d   Thumb Code    16  raw_sem.o(.text)
    .text                                    0x08003724   Section        0  raw_stat.o(.text)
    .text                                    0x08003760   Section        0  raw_system.o(.text)
    .text                                    0x080039ac   Section        0  raw_task.o(.text)
    list_delete                              0x08004679   Thumb Code    14  raw_task.o(.text)
    .text                                    0x0800468c   Section        0  raw_task_0.o(.text)
    task_0_tick_handler                      0x0800468d   Thumb Code    30  raw_task_0.o(.text)
    task_0_post                              0x080046ab   Thumb Code   192  raw_task_0.o(.text)
    task_0_process                           0x080047ad   Thumb Code   160  raw_task_0.o(.text)
    int_msg_handler                          0x0800491b   Thumb Code   272  raw_task_0.o(.text)
    int_msg_init                             0x08004a2b   Thumb Code    52  raw_task_0.o(.text)
    .text                                    0x08004b94   Section        0  raw_task_sem.o(.text)
    .text                                    0x08004bf0   Section        0  raw_tick.o(.text)
    tick_task_process                        0x08004d55   Thumb Code    28  raw_tick.o(.text)
    list_delete                              0x08004da5   Thumb Code    14  raw_tick.o(.text)
    tick_list_priority_insert                0x08004db3   Thumb Code    76  raw_tick.o(.text)
    .text                                    0x08004e4c   Section        0  raw_timer.o(.text)
    timer_list_init                          0x08004e4d   Thumb Code    10  raw_timer.o(.text)
    timer_list_priority_insert               0x08004e57   Thumb Code    62  raw_timer.o(.text)
    timer_list_remove                        0x08004e95   Thumb Code    26  raw_timer.o(.text)
    list_init                                0x080051f7   Thumb Code     6  raw_timer.o(.text)
    .text                                    0x08005238   Section      172  cpu.o(.text)
    $v0                                      0x08005238   Number         0  cpu.o(.text)
    .text                                    0x080052e4   Section        0  port.o(.text)
    .text                                    0x0800549c   Section        0  port_hook.o(.text)
    .text                                    0x080054b0   Section        0  main.o(.text)
    .text                                    0x080054e8   Section        0  system_stm32f4xx.o(.text)
    SetSysClock                              0x080054e9   Thumb Code   272  system_stm32f4xx.o(.text)
    .text                                    0x0800572c   Section        0  stm32f4xx_it.o(.text)
    .text                                    0x08005764   Section        0  led_task.o(.text)
    .text                                    0x08005834   Section        2  use_no_semi_2.o(.text)
    .text                                    0x08005838   Section        0  noretval__2printf.o(.text)
    .text                                    0x08005850   Section        0  heapauxi.o(.text)
    .text                                    0x08005856   Section        2  use_no_semi.o(.text)
    .text                                    0x08005858   Section        0  _printf_char_file.o(.text)
    .text                                    0x0800587c   Section        0  _printf_char_common.o(.text)
    _printf_input_char                       0x0800587d   Thumb Code    10  _printf_char_common.o(.text)
    .text                                    0x080058ac   Section        0  ferror.o(.text)
    .text                                    0x080058b4   Section       74  sys_stackheap_outer.o(.text)
    .text                                    0x080058fe   Section        0  __printf_nopercent.o(.text)
    .text                                    0x08005926   Section        0  exit.o(.text)
    .text                                    0x08005934   Section        8  libspace.o(.text)
    x$fpl$fpinit                             0x0800593c   Section       10  fpinit.o(x$fpl$fpinit)
    $v0                                      0x0800593c   Number         0  fpinit.o(x$fpl$fpinit)
    .data                                    0x20000000   Section        4  usart1.o(.data)
    .data                                    0x20000004   Section       16  stm32f4xx_rcc.o(.data)
    APBAHBPrescTable                         0x20000004   Data          16  stm32f4xx_rcc.o(.data)
    .data                                    0x20000018   Section       92  raw_obj.o(.data)
    .data                                    0x20000074   Section       20  system_stm32f4xx.o(.data)
    .bss                                     0x20000088   Section     5992  raw_obj.o(.bss)
    .bss                                     0x200017f0   Section     4320  led_task.o(.bss)
    sys_led3_task_stk                        0x200017f0   Data        2048  led_task.o(.bss)
    sys_led3_task_obj                        0x20001ff0   Data         112  led_task.o(.bss)
    sys_led4_task_stk                        0x20002060   Data        2048  led_task.o(.bss)
    sys_led4_task_obj                        0x20002860   Data         112  led_task.o(.bss)
    .bss                                     0x200028d0   Section       96  libspace.o(.bss)
    HEAP                                     0x20002930   Section      512  startup_stm32f429_439xx.o(HEAP)
    Heap_Mem                                 0x20002930   Data         512  startup_stm32f429_439xx.o(HEAP)
    STACK                                    0x20002b30   Section     1024  startup_stm32f429_439xx.o(STACK)
    Stack_Mem                                0x20002b30   Data        1024  startup_stm32f429_439xx.o(STACK)
    __initial_sp                             0x20002f30   Data           0  startup_stm32f429_439xx.o(STACK)

    Global Symbols

    Symbol Name                              Value     Ov Type        Size  Object(Section)

    BuildAttributes$$THM_ISAv4$E$P$D$K$B$S$7EM$VFPi3$EXTD16$VFPS$VFMA$PE$A:L22UL41UL21$X:L11$S22US41US21$IEEE1$IW$USESV6$~STKCKD$USESV7$~SHL$OSPACE$ROPI$EBA8$UX$STANDARDLIB$REQ8$PRES8$EABIv2 0x00000000   Number         0  anon$$obj.o ABSOLUTE
    __ARM_use_no_argv                        0x00000000   Number         0  main.o ABSOLUTE
    __ARM_exceptions_init                     - Undefined Weak Reference
    __alloca_initialize                       - Undefined Weak Reference
    __arm_preinit_                            - Undefined Weak Reference
    __cpp_initialize__aeabi_                  - Undefined Weak Reference
    __cxa_finalize                            - Undefined Weak Reference
    __rt_locale                               - Undefined Weak Reference
    __sigvec_lookup                           - Undefined Weak Reference
    _atexit_init                              - Undefined Weak Reference
    _call_atexit_fns                          - Undefined Weak Reference
    _clock_init                               - Undefined Weak Reference
    _fp_trap_init                             - Undefined Weak Reference
    _fp_trap_shutdown                         - Undefined Weak Reference
    _get_lc_collate                           - Undefined Weak Reference
    _get_lc_ctype                             - Undefined Weak Reference
    _get_lc_monetary                          - Undefined Weak Reference
    _get_lc_numeric                           - Undefined Weak Reference
    _get_lc_time                              - Undefined Weak Reference
    _getenv_init                              - Undefined Weak Reference
    _handle_redirection                       - Undefined Weak Reference
    _init_alloc                               - Undefined Weak Reference
    _init_user_alloc                          - Undefined Weak Reference
    _initio                                   - Undefined Weak Reference
    _mutex_acquire                            - Undefined Weak Reference
    _mutex_release                            - Undefined Weak Reference
    _rand_init                                - Undefined Weak Reference
    _signal_finish                            - Undefined Weak Reference
    _signal_init                              - Undefined Weak Reference
    _terminate_alloc                          - Undefined Weak Reference
    _terminate_user_alloc                     - Undefined Weak Reference
    _terminateio                              - Undefined Weak Reference
    __Vectors_Size                           0x000001ac   Number         0  startup_stm32f429_439xx.o ABSOLUTE
    __Vectors                                0x08000000   Data           4  startup_stm32f429_439xx.o(RESET)
    __Vectors_End                            0x080001ac   Data           0  startup_stm32f429_439xx.o(RESET)
    __main                                   0x080001ad   Thumb Code     8  __main.o(!!!main)
    __scatterload                            0x080001b5   Thumb Code     0  __scatter.o(!!!scatter)
    __scatterload_rt2                        0x080001b5   Thumb Code    44  __scatter.o(!!!scatter)
    __scatterload_rt2_thumb_only             0x080001b5   Thumb Code     0  __scatter.o(!!!scatter)
    __scatterload_null                       0x080001c3   Thumb Code     0  __scatter.o(!!!scatter)
    __scatterload_copy                       0x080001e9   Thumb Code    26  __scatter_copy.o(!!handler_copy)
    __scatterload_zeroinit                   0x08000205   Thumb Code    28  __scatter_zi.o(!!handler_zi)
    __rt_lib_init                            0x08000221   Thumb Code     0  libinit.o(.ARM.Collect$$libinit$$00000000)
    __rt_lib_init_fp_1                       0x08000223   Thumb Code     0  libinit2.o(.ARM.Collect$$libinit$$00000001)
    __rt_lib_init_alloca_1                   0x08000227   Thumb Code     0  libinit2.o(.ARM.Collect$$libinit$$0000002E)
    __rt_lib_init_argv_1                     0x08000227   Thumb Code     0  libinit2.o(.ARM.Collect$$libinit$$0000002C)
    __rt_lib_init_atexit_1                   0x08000227   Thumb Code     0  libinit2.o(.ARM.Collect$$libinit$$0000001B)
    __rt_lib_init_clock_1                    0x08000227   Thumb Code     0  libinit2.o(.ARM.Collect$$libinit$$00000021)
    __rt_lib_init_cpp_1                      0x08000227   Thumb Code     0  libinit2.o(.ARM.Collect$$libinit$$00000032)
    __rt_lib_init_exceptions_1               0x08000227   Thumb Code     0  libinit2.o(.ARM.Collect$$libinit$$00000030)
    __rt_lib_init_fp_trap_1                  0x08000227   Thumb Code     0  libinit2.o(.ARM.Collect$$libinit$$0000001F)
    __rt_lib_init_getenv_1                   0x08000227   Thumb Code     0  libinit2.o(.ARM.Collect$$libinit$$00000023)
    __rt_lib_init_heap_1                     0x08000227   Thumb Code     0  libinit2.o(.ARM.Collect$$libinit$$0000000A)
    __rt_lib_init_lc_collate_1               0x08000227   Thumb Code     0  libinit2.o(.ARM.Collect$$libinit$$00000011)
    __rt_lib_init_lc_ctype_1                 0x08000227   Thumb Code     0  libinit2.o(.ARM.Collect$$libinit$$00000013)
    __rt_lib_init_lc_monetary_1              0x08000227   Thumb Code     0  libinit2.o(.ARM.Collect$$libinit$$00000015)
    __rt_lib_init_lc_numeric_1               0x08000227   Thumb Code     0  libinit2.o(.ARM.Collect$$libinit$$00000017)
    __rt_lib_init_lc_time_1                  0x08000227   Thumb Code     0  libinit2.o(.ARM.Collect$$libinit$$00000019)
    __rt_lib_init_preinit_1                  0x08000227   Thumb Code     0  libinit2.o(.ARM.Collect$$libinit$$00000004)
    __rt_lib_init_rand_1                     0x08000227   Thumb Code     0  libinit2.o(.ARM.Collect$$libinit$$0000000E)
    __rt_lib_init_return                     0x08000227   Thumb Code     0  libinit2.o(.ARM.Collect$$libinit$$00000033)
    __rt_lib_init_signal_1                   0x08000227   Thumb Code     0  libinit2.o(.ARM.Collect$$libinit$$0000001D)
    __rt_lib_init_stdio_1                    0x08000227   Thumb Code     0  libinit2.o(.ARM.Collect$$libinit$$00000025)
    __rt_lib_init_user_alloc_1               0x08000227   Thumb Code     0  libinit2.o(.ARM.Collect$$libinit$$0000000C)
    __rt_lib_shutdown                        0x08000229   Thumb Code     0  libshutdown.o(.ARM.Collect$$libshutdown$$00000000)
    __rt_lib_shutdown_fp_trap_1              0x0800022b   Thumb Code     0  libshutdown2.o(.ARM.Collect$$libshutdown$$00000006)
    __rt_lib_shutdown_heap_1                 0x0800022b   Thumb Code     0  libshutdown2.o(.ARM.Collect$$libshutdown$$0000000E)
    __rt_lib_shutdown_return                 0x0800022b   Thumb Code     0  libshutdown2.o(.ARM.Collect$$libshutdown$$0000000F)
    __rt_lib_shutdown_signal_1               0x0800022b   Thumb Code     0  libshutdown2.o(.ARM.Collect$$libshutdown$$00000009)
    __rt_lib_shutdown_stdio_1                0x0800022b   Thumb Code     0  libshutdown2.o(.ARM.Collect$$libshutdown$$00000003)
    __rt_lib_shutdown_user_alloc_1           0x0800022b   Thumb Code     0  libshutdown2.o(.ARM.Collect$$libshutdown$$0000000B)
    __rt_entry                               0x0800022d   Thumb Code     0  __rtentry.o(.ARM.Collect$$rtentry$$00000000)
    __rt_entry_presh_1                       0x0800022d   Thumb Code     0  __rtentry2.o(.ARM.Collect$$rtentry$$00000002)
    __rt_entry_sh                            0x0800022d   Thumb Code     0  __rtentry4.o(.ARM.Collect$$rtentry$$00000004)
    __rt_entry_li                            0x08000233   Thumb Code     0  __rtentry2.o(.ARM.Collect$$rtentry$$0000000A)
    __rt_entry_postsh_1                      0x08000233   Thumb Code     0  __rtentry2.o(.ARM.Collect$$rtentry$$00000009)
    __rt_entry_main                          0x08000237   Thumb Code     0  __rtentry2.o(.ARM.Collect$$rtentry$$0000000D)
    __rt_entry_postli_1                      0x08000237   Thumb Code     0  __rtentry2.o(.ARM.Collect$$rtentry$$0000000C)
    __rt_exit                                0x0800023f   Thumb Code     0  rtexit.o(.ARM.Collect$$rtexit$$00000000)
    __rt_exit_ls                             0x08000241   Thumb Code     0  rtexit2.o(.ARM.Collect$$rtexit$$00000003)
    __rt_exit_prels_1                        0x08000241   Thumb Code     0  rtexit2.o(.ARM.Collect$$rtexit$$00000002)
    __rt_exit_exit                           0x08000245   Thumb Code     0  rtexit2.o(.ARM.Collect$$rtexit$$00000004)
    Reset_Handler                            0x0800024d   Thumb Code     8  startup_stm32f429_439xx.o(.text)
    ADC_IRQHandler                           0x08000267   Thumb Code     0  startup_stm32f429_439xx.o(.text)
    CAN1_RX0_IRQHandler                      0x08000267   Thumb Code     0  startup_stm32f429_439xx.o(.text)
    CAN1_RX1_IRQHandler                      0x08000267   Thumb Code     0  startup_stm32f429_439xx.o(.text)
    CAN1_SCE_IRQHandler                      0x08000267   Thumb Code     0  startup_stm32f429_439xx.o(.text)
    CAN1_TX_IRQHandler                       0x08000267   Thumb Code     0  startup_stm32f429_439xx.o(.text)
    CAN2_RX0_IRQHandler                      0x08000267   Thumb Code     0  startup_stm32f429_439xx.o(.text)
    CAN2_RX1_IRQHandler                      0x08000267   Thumb Code     0  startup_stm32f429_439xx.o(.text)
    CAN2_SCE_IRQHandler                      0x08000267   Thumb Code     0  startup_stm32f429_439xx.o(.text)
    CAN2_TX_IRQHandler                       0x08000267   Thumb Code     0  startup_stm32f429_439xx.o(.text)
    CRYP_IRQHandler                          0x08000267   Thumb Code     0  startup_stm32f429_439xx.o(.text)
    DCMI_IRQHandler                          0x08000267   Thumb Code     0  startup_stm32f429_439xx.o(.text)
    DMA1_Stream0_IRQHandler                  0x08000267   Thumb Code     0  startup_stm32f429_439xx.o(.text)
    DMA1_Stream1_IRQHandler                  0x08000267   Thumb Code     0  startup_stm32f429_439xx.o(.text)
    DMA1_Stream2_IRQHandler                  0x08000267   Thumb Code     0  startup_stm32f429_439xx.o(.text)
    DMA1_Stream3_IRQHandler                  0x08000267   Thumb Code     0  startup_stm32f429_439xx.o(.text)
    DMA1_Stream4_IRQHandler                  0x08000267   Thumb Code     0  startup_stm32f429_439xx.o(.text)
    DMA1_Stream5_IRQHandler                  0x08000267   Thumb Code     0  startup_stm32f429_439xx.o(.text)
    DMA1_Stream6_IRQHandler                  0x08000267   Thumb Code     0  startup_stm32f429_439xx.o(.text)
    DMA1_Stream7_IRQHandler                  0x08000267   Thumb Code     0  startup_stm32f429_439xx.o(.text)
    DMA2D_IRQHandler                         0x08000267   Thumb Code     0  startup_stm32f429_439xx.o(.text)
    DMA2_Stream0_IRQHandler                  0x08000267   Thumb Code     0  startup_stm32f429_439xx.o(.text)
    DMA2_Stream1_IRQHandler                  0x08000267   Thumb Code     0  startup_stm32f429_439xx.o(.text)
    DMA2_Stream2_IRQHandler                  0x08000267   Thumb Code     0  startup_stm32f429_439xx.o(.text)
    DMA2_Stream3_IRQHandler                  0x08000267   Thumb Code     0  startup_stm32f429_439xx.o(.text)
    DMA2_Stream4_IRQHandler                  0x08000267   Thumb Code     0  startup_stm32f429_439xx.o(.text)
    DMA2_Stream5_IRQHandler                  0x08000267   Thumb Code     0  startup_stm32f429_439xx.o(.text)
    DMA2_Stream6_IRQHandler                  0x08000267   Thumb Code     0  startup_stm32f429_439xx.o(.text)
    DMA2_Stream7_IRQHandler                  0x08000267   Thumb Code     0  startup_stm32f429_439xx.o(.text)
    ETH_IRQHandler                           0x08000267   Thumb Code     0  startup_stm32f429_439xx.o(.text)
    ETH_WKUP_IRQHandler                      0x08000267   Thumb Code     0  startup_stm32f429_439xx.o(.text)
    EXTI0_IRQHandler                         0x08000267   Thumb Code     0  startup_stm32f429_439xx.o(.text)
    EXTI15_10_IRQHandler                     0x08000267   Thumb Code     0  startup_stm32f429_439xx.o(.text)
    EXTI1_IRQHandler                         0x08000267   Thumb Code     0  startup_stm32f429_439xx.o(.text)
    EXTI2_IRQHandler                         0x08000267   Thumb Code     0  startup_stm32f429_439xx.o(.text)
    EXTI3_IRQHandler                         0x08000267   Thumb Code     0  startup_stm32f429_439xx.o(.text)
    EXTI4_IRQHandler                         0x08000267   Thumb Code     0  startup_stm32f429_439xx.o(.text)
    EXTI9_5_IRQHandler                       0x08000267   Thumb Code     0  startup_stm32f429_439xx.o(.text)
    FLASH_IRQHandler                         0x08000267   Thumb Code     0  startup_stm32f429_439xx.o(.text)
    FMC_IRQHandler                           0x08000267   Thumb Code     0  startup_stm32f429_439xx.o(.text)
    FPU_IRQHandler                           0x08000267   Thumb Code     0  startup_stm32f429_439xx.o(.text)
    HASH_RNG_IRQHandler                      0x08000267   Thumb Code     0  startup_stm32f429_439xx.o(.text)
    I2C1_ER_IRQHandler                       0x08000267   Thumb Code     0  startup_stm32f429_439xx.o(.text)
    I2C1_EV_IRQHandler                       0x08000267   Thumb Code     0  startup_stm32f429_439xx.o(.text)
    I2C2_ER_IRQHandler                       0x08000267   Thumb Code     0  startup_stm32f429_439xx.o(.text)
    I2C2_EV_IRQHandler                       0x08000267   Thumb Code     0  startup_stm32f429_439xx.o(.text)
    I2C3_ER_IRQHandler                       0x08000267   Thumb Code     0  startup_stm32f429_439xx.o(.text)
    I2C3_EV_IRQHandler                       0x08000267   Thumb Code     0  startup_stm32f429_439xx.o(.text)
    LTDC_ER_IRQHandler                       0x08000267   Thumb Code     0  startup_stm32f429_439xx.o(.text)
    LTDC_IRQHandler                          0x08000267   Thumb Code     0  startup_stm32f429_439xx.o(.text)
    OTG_FS_IRQHandler                        0x08000267   Thumb Code     0  startup_stm32f429_439xx.o(.text)
    OTG_FS_WKUP_IRQHandler                   0x08000267   Thumb Code     0  startup_stm32f429_439xx.o(.text)
    OTG_HS_EP1_IN_IRQHandler                 0x08000267   Thumb Code     0  startup_stm32f429_439xx.o(.text)
    OTG_HS_EP1_OUT_IRQHandler                0x08000267   Thumb Code     0  startup_stm32f429_439xx.o(.text)
    OTG_HS_IRQHandler                        0x08000267   Thumb Code     0  startup_stm32f429_439xx.o(.text)
    OTG_HS_WKUP_IRQHandler                   0x08000267   Thumb Code     0  startup_stm32f429_439xx.o(.text)
    PVD_IRQHandler                           0x08000267   Thumb Code     0  startup_stm32f429_439xx.o(.text)
    RCC_IRQHandler                           0x08000267   Thumb Code     0  startup_stm32f429_439xx.o(.text)
    RTC_Alarm_IRQHandler                     0x08000267   Thumb Code     0  startup_stm32f429_439xx.o(.text)
    RTC_WKUP_IRQHandler                      0x08000267   Thumb Code     0  startup_stm32f429_439xx.o(.text)
    SAI1_IRQHandler                          0x08000267   Thumb Code     0  startup_stm32f429_439xx.o(.text)
    SDIO_IRQHandler                          0x08000267   Thumb Code     0  startup_stm32f429_439xx.o(.text)
    SPI1_IRQHandler                          0x08000267   Thumb Code     0  startup_stm32f429_439xx.o(.text)
    SPI2_IRQHandler                          0x08000267   Thumb Code     0  startup_stm32f429_439xx.o(.text)
    SPI3_IRQHandler                          0x08000267   Thumb Code     0  startup_stm32f429_439xx.o(.text)
    SPI4_IRQHandler                          0x08000267   Thumb Code     0  startup_stm32f429_439xx.o(.text)
    SPI5_IRQHandler                          0x08000267   Thumb Code     0  startup_stm32f429_439xx.o(.text)
    SPI6_IRQHandler                          0x08000267   Thumb Code     0  startup_stm32f429_439xx.o(.text)
    TAMP_STAMP_IRQHandler                    0x08000267   Thumb Code     0  startup_stm32f429_439xx.o(.text)
    TIM1_BRK_TIM9_IRQHandler                 0x08000267   Thumb Code     0  startup_stm32f429_439xx.o(.text)
    TIM1_CC_IRQHandler                       0x08000267   Thumb Code     0  startup_stm32f429_439xx.o(.text)
    TIM1_TRG_COM_TIM11_IRQHandler            0x08000267   Thumb Code     0  startup_stm32f429_439xx.o(.text)
    TIM1_UP_TIM10_IRQHandler                 0x08000267   Thumb Code     0  startup_stm32f429_439xx.o(.text)
    TIM2_IRQHandler                          0x08000267   Thumb Code     0  startup_stm32f429_439xx.o(.text)
    TIM3_IRQHandler                          0x08000267   Thumb Code     0  startup_stm32f429_439xx.o(.text)
    TIM4_IRQHandler                          0x08000267   Thumb Code     0  startup_stm32f429_439xx.o(.text)
    TIM5_IRQHandler                          0x08000267   Thumb Code     0  startup_stm32f429_439xx.o(.text)
    TIM6_DAC_IRQHandler                      0x08000267   Thumb Code     0  startup_stm32f429_439xx.o(.text)
    TIM7_IRQHandler                          0x08000267   Thumb Code     0  startup_stm32f429_439xx.o(.text)
    TIM8_BRK_TIM12_IRQHandler                0x08000267   Thumb Code     0  startup_stm32f429_439xx.o(.text)
    TIM8_CC_IRQHandler                       0x08000267   Thumb Code     0  startup_stm32f429_439xx.o(.text)
    TIM8_TRG_COM_TIM14_IRQHandler            0x08000267   Thumb Code     0  startup_stm32f429_439xx.o(.text)
    TIM8_UP_TIM13_IRQHandler                 0x08000267   Thumb Code     0  startup_stm32f429_439xx.o(.text)
    UART4_IRQHandler                         0x08000267   Thumb Code     0  startup_stm32f429_439xx.o(.text)
    UART5_IRQHandler                         0x08000267   Thumb Code     0  startup_stm32f429_439xx.o(.text)
    UART7_IRQHandler                         0x08000267   Thumb Code     0  startup_stm32f429_439xx.o(.text)
    UART8_IRQHandler                         0x08000267   Thumb Code     0  startup_stm32f429_439xx.o(.text)
    USART2_IRQHandler                        0x08000267   Thumb Code     0  startup_stm32f429_439xx.o(.text)
    USART3_IRQHandler                        0x08000267   Thumb Code     0  startup_stm32f429_439xx.o(.text)
    USART6_IRQHandler                        0x08000267   Thumb Code     0  startup_stm32f429_439xx.o(.text)
    WWDG_IRQHandler                          0x08000267   Thumb Code     0  startup_stm32f429_439xx.o(.text)
    __user_initial_stackheap                 0x08000269   Thumb Code     0  startup_stm32f429_439xx.o(.text)
    os_cpu_systick_init                      0x0800028d   Thumb Code    80  sys.o(.text)
    _sys_exit                                0x080002e9   Thumb Code     6  usart1.o(.text)
    fputc                                    0x080002ef   Thumb Code    22  usart1.o(.text)
    usart1_init                              0x08000305   Thumb Code   204  usart1.o(.text)
    USART1_IRQHandler                        0x080003d1   Thumb Code    40  usart1.o(.text)
    GPIO_DeInit                              0x08000401   Thumb Code   268  stm32f4xx_gpio.o(.text)
    GPIO_Init                                0x0800050d   Thumb Code   144  stm32f4xx_gpio.o(.text)
    GPIO_StructInit                          0x0800059d   Thumb Code    18  stm32f4xx_gpio.o(.text)
    GPIO_PinLockConfig                       0x080005af   Thumb Code    34  stm32f4xx_gpio.o(.text)
    GPIO_ReadInputDataBit                    0x080005d1   Thumb Code    18  stm32f4xx_gpio.o(.text)
    GPIO_ReadInputData                       0x080005e3   Thumb Code     8  stm32f4xx_gpio.o(.text)
    GPIO_ReadOutputDataBit                   0x080005eb   Thumb Code    18  stm32f4xx_gpio.o(.text)
    GPIO_ReadOutputData                      0x080005fd   Thumb Code     8  stm32f4xx_gpio.o(.text)
    GPIO_SetBits                             0x08000605   Thumb Code     4  stm32f4xx_gpio.o(.text)
    GPIO_ResetBits                           0x08000609   Thumb Code     4  stm32f4xx_gpio.o(.text)
    GPIO_WriteBit                            0x0800060d   Thumb Code    10  stm32f4xx_gpio.o(.text)
    GPIO_Write                               0x08000617   Thumb Code     4  stm32f4xx_gpio.o(.text)
    GPIO_ToggleBits                          0x0800061b   Thumb Code     8  stm32f4xx_gpio.o(.text)
    GPIO_PinAFConfig                         0x08000623   Thumb Code    70  stm32f4xx_gpio.o(.text)
    RCC_DeInit                               0x08000695   Thumb Code    82  stm32f4xx_rcc.o(.text)
    RCC_HSEConfig                            0x080006e7   Thumb Code    14  stm32f4xx_rcc.o(.text)
    RCC_GetFlagStatus                        0x080006f5   Thumb Code    60  stm32f4xx_rcc.o(.text)
    RCC_WaitForHSEStartUp                    0x08000731   Thumb Code    56  stm32f4xx_rcc.o(.text)
    RCC_AdjustHSICalibrationValue            0x08000769   Thumb Code    20  stm32f4xx_rcc.o(.text)
    RCC_HSICmd                               0x0800077d   Thumb Code     6  stm32f4xx_rcc.o(.text)
    RCC_LSEConfig                            0x08000783   Thumb Code    46  stm32f4xx_rcc.o(.text)
    RCC_LSICmd                               0x080007b1   Thumb Code     6  stm32f4xx_rcc.o(.text)
    RCC_PLLConfig                            0x080007b7   Thumb Code    32  stm32f4xx_rcc.o(.text)
    RCC_PLLCmd                               0x080007d7   Thumb Code     6  stm32f4xx_rcc.o(.text)
    RCC_PLLI2SConfig                         0x080007dd   Thumb Code    20  stm32f4xx_rcc.o(.text)
    RCC_PLLI2SCmd                            0x080007f1   Thumb Code     6  stm32f4xx_rcc.o(.text)
    RCC_PLLSAIConfig                         0x080007f7   Thumb Code    20  stm32f4xx_rcc.o(.text)
    RCC_PLLSAICmd                            0x0800080b   Thumb Code     6  stm32f4xx_rcc.o(.text)
    RCC_ClockSecuritySystemCmd               0x08000811   Thumb Code     6  stm32f4xx_rcc.o(.text)
    RCC_MCO1Config                           0x08000817   Thumb Code    28  stm32f4xx_rcc.o(.text)
    RCC_MCO2Config                           0x08000833   Thumb Code    28  stm32f4xx_rcc.o(.text)
    RCC_SYSCLKConfig                         0x0800084f   Thumb Code    20  stm32f4xx_rcc.o(.text)
    RCC_GetSYSCLKSource                      0x08000863   Thumb Code    12  stm32f4xx_rcc.o(.text)
    RCC_HCLKConfig                           0x0800086f   Thumb Code    20  stm32f4xx_rcc.o(.text)
    RCC_PCLK1Config                          0x08000883   Thumb Code    20  stm32f4xx_rcc.o(.text)
    RCC_PCLK2Config                          0x08000897   Thumb Code    22  stm32f4xx_rcc.o(.text)
    RCC_GetClocksFreq                        0x080008ad   Thumb Code   222  stm32f4xx_rcc.o(.text)
    RCC_RTCCLKConfig                         0x0800098b   Thumb Code    54  stm32f4xx_rcc.o(.text)
    RCC_RTCCLKCmd                            0x080009c1   Thumb Code     8  stm32f4xx_rcc.o(.text)
    RCC_BackupResetCmd                       0x080009c9   Thumb Code     8  stm32f4xx_rcc.o(.text)
    RCC_I2SCLKConfig                         0x080009d1   Thumb Code     6  stm32f4xx_rcc.o(.text)
    RCC_SAIPLLI2SClkDivConfig                0x080009d7   Thumb Code    26  stm32f4xx_rcc.o(.text)
    RCC_SAIPLLSAIClkDivConfig                0x080009f1   Thumb Code    28  stm32f4xx_rcc.o(.text)
    RCC_SAIBlockACLKConfig                   0x08000a0d   Thumb Code    20  stm32f4xx_rcc.o(.text)
    RCC_SAIBlockBCLKConfig                   0x08000a21   Thumb Code    20  stm32f4xx_rcc.o(.text)
    RCC_LTDCCLKDivConfig                     0x08000a35   Thumb Code    20  stm32f4xx_rcc.o(.text)
    RCC_TIMCLKPresConfig                     0x08000a49   Thumb Code     6  stm32f4xx_rcc.o(.text)
    RCC_AHB1PeriphClockCmd                   0x08000a4f   Thumb Code    82  stm32f4xx_rcc.o(.text)
    RCC_AHB2PeriphClockCmd                   0x08000aa1   Thumb Code    26  stm32f4xx_rcc.o(.text)
    RCC_AHB3PeriphClockCmd                   0x08000abb   Thumb Code    34  stm32f4xx_rcc.o(.text)
    RCC_APB1PeriphClockCmd                   0x08000add   Thumb Code    34  stm32f4xx_rcc.o(.text)
    RCC_APB2PeriphClockCmd                   0x08000aff   Thumb Code    34  stm32f4xx_rcc.o(.text)
    RCC_AHB1PeriphResetCmd                   0x08000b21   Thumb Code    34  stm32f4xx_rcc.o(.text)
    RCC_AHB2PeriphResetCmd                   0x08000b43   Thumb Code    34  stm32f4xx_rcc.o(.text)
    RCC_AHB3PeriphResetCmd                   0x08000b65   Thumb Code    34  stm32f4xx_rcc.o(.text)
    RCC_APB1PeriphResetCmd                   0x08000b87   Thumb Code    34  stm32f4xx_rcc.o(.text)
    RCC_APB2PeriphResetCmd                   0x08000ba9   Thumb Code    34  stm32f4xx_rcc.o(.text)
    RCC_AHB1PeriphClockLPModeCmd             0x08000bcb   Thumb Code    34  stm32f4xx_rcc.o(.text)
    RCC_AHB2PeriphClockLPModeCmd             0x08000bed   Thumb Code    34  stm32f4xx_rcc.o(.text)
    RCC_AHB3PeriphClockLPModeCmd             0x08000c0f   Thumb Code    34  stm32f4xx_rcc.o(.text)
    RCC_APB1PeriphClockLPModeCmd             0x08000c31   Thumb Code    34  stm32f4xx_rcc.o(.text)
    RCC_APB2PeriphClockLPModeCmd             0x08000c53   Thumb Code    34  stm32f4xx_rcc.o(.text)
    RCC_ITConfig                             0x08000c75   Thumb Code    34  stm32f4xx_rcc.o(.text)
    RCC_ClearFlag                            0x08000c97   Thumb Code    18  stm32f4xx_rcc.o(.text)
    RCC_GetITStatus                          0x08000ca9   Thumb Code    22  stm32f4xx_rcc.o(.text)
    RCC_ClearITPendingBit                    0x08000cbf   Thumb Code     8  stm32f4xx_rcc.o(.text)
    NVIC_PriorityGroupConfig                 0x08000ccd   Thumb Code    10  misc.o(.text)
    NVIC_Init                                0x08000cd7   Thumb Code   106  misc.o(.text)
    NVIC_SetVectorTable                      0x08000d41   Thumb Code    14  misc.o(.text)
    NVIC_SystemLPConfig                      0x08000d4f   Thumb Code    34  misc.o(.text)
    SysTick_CLKSourceConfig                  0x08000d71   Thumb Code    40  misc.o(.text)
    USART_DeInit                             0x08000dad   Thumb Code   206  stm32f4xx_usart.o(.text)
    USART_Init                               0x08000e7b   Thumb Code   204  stm32f4xx_usart.o(.text)
    USART_StructInit                         0x08000f47   Thumb Code    24  stm32f4xx_usart.o(.text)
    USART_ClockInit                          0x08000f5f   Thumb Code    32  stm32f4xx_usart.o(.text)
    USART_ClockStructInit                    0x08000f7f   Thumb Code    12  stm32f4xx_usart.o(.text)
    USART_Cmd                                0x08000f8b   Thumb Code    24  stm32f4xx_usart.o(.text)
    USART_SetPrescaler                       0x08000fa3   Thumb Code    16  stm32f4xx_usart.o(.text)
    USART_OverSampling8Cmd                   0x08000fb3   Thumb Code    22  stm32f4xx_usart.o(.text)
    USART_OneBitMethodCmd                    0x08000fc9   Thumb Code    24  stm32f4xx_usart.o(.text)
    USART_SendData                           0x08000fe1   Thumb Code     8  stm32f4xx_usart.o(.text)
    USART_ReceiveData                        0x08000fe9   Thumb Code    10  stm32f4xx_usart.o(.text)
    USART_SetAddress                         0x08000ff3   Thumb Code    18  stm32f4xx_usart.o(.text)
    USART_ReceiverWakeUpCmd                  0x08001005   Thumb Code    24  stm32f4xx_usart.o(.text)
    USART_WakeUpConfig                       0x0800101d   Thumb Code    18  stm32f4xx_usart.o(.text)
    USART_LINBreakDetectLengthConfig         0x0800102f   Thumb Code    18  stm32f4xx_usart.o(.text)
    USART_LINCmd                             0x08001041   Thumb Code    24  stm32f4xx_usart.o(.text)
    USART_SendBreak                          0x08001059   Thumb Code    10  stm32f4xx_usart.o(.text)
    USART_HalfDuplexCmd                      0x08001063   Thumb Code    24  stm32f4xx_usart.o(.text)
    USART_SetGuardTime                       0x0800107b   Thumb Code    16  stm32f4xx_usart.o(.text)
    USART_SmartCardCmd                       0x0800108b   Thumb Code    24  stm32f4xx_usart.o(.text)
    USART_SmartCardNACKCmd                   0x080010a3   Thumb Code    24  stm32f4xx_usart.o(.text)
    USART_IrDAConfig                         0x080010bb   Thumb Code    18  stm32f4xx_usart.o(.text)
    USART_IrDACmd                            0x080010cd   Thumb Code    24  stm32f4xx_usart.o(.text)
    USART_DMACmd                             0x080010e5   Thumb Code    18  stm32f4xx_usart.o(.text)
    USART_ITConfig                           0x080010f7   Thumb Code    74  stm32f4xx_usart.o(.text)
    USART_GetFlagStatus                      0x08001141   Thumb Code    26  stm32f4xx_usart.o(.text)
    USART_ClearFlag                          0x0800115b   Thumb Code    18  stm32f4xx_usart.o(.text)
    USART_GetITStatus                        0x0800116d   Thumb Code   118  stm32f4xx_usart.o(.text)
    USART_ClearITPendingBit                  0x080011e3   Thumb Code    30  stm32f4xx_usart.o(.text)
    led_init                                 0x08001201   Thumb Code    46  led.o(.text)
    led_on                                   0x0800122f   Thumb Code    60  led.o(.text)
    led_off                                  0x0800126b   Thumb Code    60  led.o(.text)
    led_toggle                               0x080012a7   Thumb Code    74  led.o(.text)
    raw_event_create                         0x080012f5   Thumb Code    32  raw_event.o(.text)
    raw_event_get                            0x08001315   Thumb Code   432  raw_event.o(.text)
    event_set                                0x080014c5   Thumb Code   312  raw_event.o(.text)
    raw_event_set                            0x080015fd   Thumb Code    60  raw_event.o(.text)
    raw_event_delete                         0x08001639   Thumb Code   184  raw_event.o(.text)
    raw_idle_task                            0x080016fd   Thumb Code    42  raw_idle.o(.text)
    raw_mutex_create                         0x0800172d   Thumb Code    66  raw_mutex.o(.text)
    chg_pri_mutex                            0x0800176f   Thumb Code   130  raw_mutex.o(.text)
    mtx_chg_pri                              0x0800185f   Thumb Code   112  raw_mutex.o(.text)
    mutex_state_change                       0x080018cf   Thumb Code    38  raw_mutex.o(.text)
    raw_mutex_get                            0x080018f5   Thumb Code   532  raw_mutex.o(.text)
    raw_mutex_put                            0x08001b09   Thumb Code   392  raw_mutex.o(.text)
    raw_task_free_mutex                      0x08001c91   Thumb Code    82  raw_mutex.o(.text)
    raw_mutex_delete                         0x08001ce3   Thumb Code   174  raw_mutex.o(.text)
    run_queue_init                           0x08001db3   Thumb Code    36  raw_pend.o(.text)
    add_ready_list_head                      0x08001e23   Thumb Code    40  raw_pend.o(.text)
    add_ready_list_end                       0x08001e4b   Thumb Code    40  raw_pend.o(.text)
    add_ready_list                           0x08001e73   Thumb Code    38  raw_pend.o(.text)
    remove_ready_list                        0x08001e99   Thumb Code   120  raw_pend.o(.text)
    move_to_ready_list_end                   0x08001f11   Thumb Code    30  raw_pend.o(.text)
    get_ready_task                           0x08001f2f   Thumb Code    34  raw_pend.o(.text)
    raw_wake_object                          0x08001fb5   Thumb Code    12  raw_pend.o(.text)
    wake_send_msg                            0x08001fc1   Thumb Code    16  raw_pend.o(.text)
    wake_send_msg_size                       0x08001fd1   Thumb Code    20  raw_pend.o(.text)
    raw_pend_object                          0x08001fe5   Thumb Code    90  raw_pend.o(.text)
    delete_pend_obj                          0x0800203f   Thumb Code   102  raw_pend.o(.text)
    change_pend_list_priority                0x080020a5   Thumb Code    26  raw_pend.o(.text)
    raw_queue_create                         0x080020e1   Thumb Code    66  raw_queue.o(.text)
    msg_post                                 0x08002123   Thumb Code   366  raw_queue.o(.text)
    raw_queue_front_post                     0x08002291   Thumb Code    62  raw_queue.o(.text)
    raw_queue_end_post                       0x080022cf   Thumb Code    64  raw_queue.o(.text)
    raw_queue_post_notify                    0x0800230f   Thumb Code    58  raw_queue.o(.text)
    raw_queue_all_post                       0x08002349   Thumb Code    60  raw_queue.o(.text)
    raw_queue_send_notify                    0x08002385   Thumb Code   146  raw_queue.o(.text)
    raw_queue_receive                        0x08002417   Thumb Code   396  raw_queue.o(.text)
    raw_queue_full_check                     0x080025a3   Thumb Code   156  raw_queue.o(.text)
    raw_queue_flush                          0x0800263f   Thumb Code   154  raw_queue.o(.text)
    raw_queue_delete                         0x080026d9   Thumb Code   172  raw_queue.o(.text)
    raw_queue_get_information                0x08002785   Thumb Code   188  raw_queue.o(.text)
    raw_queue_size_create                    0x0800285d   Thumb Code    86  raw_queue_size.o(.text)
    msg_size_post                            0x080028b3   Thumb Code   366  raw_queue_size.o(.text)
    raw_queue_size_receive                   0x08002a21   Thumb Code   444  raw_queue_size.o(.text)
    raw_queue_size_front_post                0x08002bdd   Thumb Code    70  raw_queue_size.o(.text)
    raw_queue_size_end_post                  0x08002c23   Thumb Code    70  raw_queue_size.o(.text)
    raw_queue_size_all_post                  0x08002c69   Thumb Code    84  raw_queue_size.o(.text)
    raw_queue_size_full_check                0x08002cbd   Thumb Code   156  raw_queue_size.o(.text)
    raw_queue_size_flush                     0x08002d59   Thumb Code   164  raw_queue_size.o(.text)
    raw_queue_size_delete                    0x08002dfd   Thumb Code   172  raw_queue_size.o(.text)
    raw_queue_size_get_information           0x08002ea9   Thumb Code   182  raw_queue_size.o(.text)
    raw_sched                                0x08002f79   Thumb Code    64  raw_sched.o(.text)
    raw_os_init                              0x08002fb9   Thumb Code    94  raw_sched.o(.text)
    raw_os_start                             0x08003017   Thumb Code    44  raw_sched.o(.text)
    calculate_time_slice                     0x08003043   Thumb Code   316  raw_sched.o(.text)
    raw_semaphore_create                     0x080031c5   Thumb Code    42  raw_sem.o(.text)
    semaphore_put                            0x080031ef   Thumb Code   290  raw_sem.o(.text)
    raw_semaphore_put                        0x08003311   Thumb Code    52  raw_sem.o(.text)
    raw_semaphore_put_notify                 0x08003345   Thumb Code    46  raw_sem.o(.text)
    raw_semaphore_put_all                    0x08003373   Thumb Code    46  raw_sem.o(.text)
    raw_semphore_send_notify                 0x080033a1   Thumb Code   146  raw_sem.o(.text)
    raw_semaphore_get                        0x08003433   Thumb Code   332  raw_sem.o(.text)
    raw_semaphore_set                        0x0800357f   Thumb Code   226  raw_sem.o(.text)
    raw_semaphore_delete                     0x08003661   Thumb Code   172  raw_sem.o(.text)
    raw_stack_check                          0x08003725   Thumb Code    56  raw_stat.o(.text)
    raw_finish_int                           0x08003761   Thumb Code   102  raw_system.o(.text)
    raw_time_tick                            0x080037c7   Thumb Code    50  raw_system.o(.text)
    raw_enter_interrupt                      0x080037f9   Thumb Code    50  raw_system.o(.text)
    raw_system_time_get                      0x0800382b   Thumb Code     6  raw_system.o(.text)
    block_state_post_process                 0x08003831   Thumb Code    68  raw_system.o(.text)
    raw_system_time_set                      0x08003875   Thumb Code    90  raw_system.o(.text)
    raw_memset                               0x080038cf   Thumb Code    20  raw_system.o(.text)
    raw_memcpy                               0x080038e3   Thumb Code    26  raw_system.o(.text)
    bit_search_first_one                     0x080038fd   Thumb Code   146  raw_system.o(.text)
    raw_task_create                          0x080039ad   Thumb Code   526  raw_task.o(.text)
    raw_task_stack_check                     0x08003bbb   Thumb Code    36  raw_task.o(.text)
    raw_disable_sche                         0x08003bdf   Thumb Code    60  raw_task.o(.text)
    raw_enable_sche                          0x08003c1b   Thumb Code    80  raw_task.o(.text)
    raw_sleep                                0x08003c6b   Thumb Code   208  raw_task.o(.text)
    raw_time_sleep                           0x08003d3b   Thumb Code   102  raw_task.o(.text)
    task_suspend                             0x08003da1   Thumb Code   366  raw_task.o(.text)
    raw_task_suspend                         0x08003f0f   Thumb Code    62  raw_task.o(.text)
    task_resume                              0x08003f4d   Thumb Code   276  raw_task.o(.text)
    raw_task_resume                          0x08004061   Thumb Code    50  raw_task.o(.text)
    change_internal_task_priority            0x08004093   Thumb Code   112  raw_task.o(.text)
    raw_task_priority_change                 0x08004103   Thumb Code   254  raw_task.o(.text)
    raw_task_delete                          0x08004201   Thumb Code   324  raw_task.o(.text)
    raw_set_task_user_point                  0x08004345   Thumb Code    44  raw_task.o(.text)
    raw_get_task_user_point                  0x08004371   Thumb Code    12  raw_task.o(.text)
    raw_task_time_slice_change               0x0800437d   Thumb Code   108  raw_task.o(.text)
    raw_set_sched_way                        0x080043e9   Thumb Code   108  raw_task.o(.text)
    raw_get_sched_way                        0x08004455   Thumb Code   104  raw_task.o(.text)
    raw_task_wait_abort                      0x080044bd   Thumb Code   266  raw_task.o(.text)
    raw_task_identify                        0x080045c7   Thumb Code     6  raw_task.o(.text)
    raw_iter_block_task                      0x080045cd   Thumb Code   146  raw_task.o(.text)
    raw_get_system_global_space              0x0800465f   Thumb Code    26  raw_task.o(.text)
    raw_task_0_post                          0x0800476b   Thumb Code    22  raw_task_0.o(.text)
    task_0_tick_post                         0x08004781   Thumb Code    22  raw_task_0.o(.text)
    raw_task_0_front_post                    0x08004797   Thumb Code    22  raw_task_0.o(.text)
    hybrid_int_process                       0x0800484d   Thumb Code   206  raw_task_0.o(.text)
    int_msg_post                             0x08004a5f   Thumb Code   214  raw_task_0.o(.text)
    raw_task_0_init                          0x08004b35   Thumb Code    50  raw_task_0.o(.text)
    raw_task_semaphore_create                0x08004b95   Thumb Code    28  raw_task_sem.o(.text)
    raw_task_semaphore_put                   0x08004bb1   Thumb Code    12  raw_task_sem.o(.text)
    raw_task_semaphore_get                   0x08004bbd   Thumb Code    18  raw_task_sem.o(.text)
    raw_task_semaphore_set                   0x08004bcf   Thumb Code    16  raw_task_sem.o(.text)
    raw_task_semaphore_delete                0x08004bdf   Thumb Code    12  raw_task_sem.o(.text)
    tick_list_init                           0x08004bf1   Thumb Code    10  raw_tick.o(.text)
    tick_list_insert                         0x08004bfb   Thumb Code    32  raw_tick.o(.text)
    tick_list_remove                         0x08004c1b   Thumb Code    22  raw_tick.o(.text)
    tick_list_update                         0x08004c31   Thumb Code   292  raw_tick.o(.text)
    tick_task_start                          0x08004d71   Thumb Code    52  raw_tick.o(.text)
    raw_timer_activate                       0x08004eaf   Thumb Code   130  raw_timer.o(.text)
    raw_timer_create                         0x08004f31   Thumb Code   114  raw_timer.o(.text)
    raw_timer_change                         0x08004fa3   Thumb Code   104  raw_timer.o(.text)
    raw_timer_deactivate                     0x0800500b   Thumb Code   108  raw_timer.o(.text)
    raw_timer_delete                         0x08005077   Thumb Code   102  raw_timer.o(.text)
    timer_task                               0x080050dd   Thumb Code   190  raw_timer.o(.text)
    call_timer_task                          0x0800519b   Thumb Code    30  raw_timer.o(.text)
    raw_timer_init                           0x080051b9   Thumb Code    62  raw_timer.o(.text)
    OS_CPU_SR_Save                           0x08005239   Thumb Code     0  cpu.o(.text)
    OS_CPU_SR_Restore                        0x08005241   Thumb Code     0  cpu.o(.text)
    CPU_IntDis                               0x08005247   Thumb Code     0  cpu.o(.text)
    CPU_IntEn                                0x0800524b   Thumb Code     0  cpu.o(.text)
    raw_start_first_task                     0x0800524f   Thumb Code     0  cpu.o(.text)
    port_task_switch                         0x08005275   Thumb Code     0  cpu.o(.text)
    raw_int_switch                           0x0800527f   Thumb Code     0  cpu.o(.text)
    PendSV_Handler                           0x08005289   Thumb Code     0  cpu.o(.text)
    port_stack_init                          0x080052e5   Thumb Code   440  port.o(.text)
    raw_os_init_hook                         0x0800549d   Thumb Code     2  port_hook.o(.text)
    raw_task_delete_hook                     0x0800549f   Thumb Code     2  port_hook.o(.text)
    raw_task_abort_hook                      0x080054a1   Thumb Code     2  port_hook.o(.text)
    raw_idle_task_hook                       0x080054a3   Thumb Code     2  port_hook.o(.text)
    raw_task_switch_hook                     0x080054a5   Thumb Code     2  port_hook.o(.text)
    raw_tick_hook                            0x080054a7   Thumb Code     2  port_hook.o(.text)
    task_create_hook                         0x080054a9   Thumb Code     2  port_hook.o(.text)
    raw_idle_coroutine_hook                  0x080054ab   Thumb Code     4  port_hook.o(.text)
    main                                     0x080054b1   Thumb Code    40  main.o(.text)
    SystemInit                               0x080055f9   Thumb Code    88  system_stm32f4xx.o(.text)
    SystemCoreClockUpdate                    0x08005651   Thumb Code   174  system_stm32f4xx.o(.text)
    NMI_Handler                              0x0800572d   Thumb Code     2  stm32f4xx_it.o(.text)
    HardFault_Handler                        0x0800572f   Thumb Code    20  stm32f4xx_it.o(.text)
    MemManage_Handler                        0x08005743   Thumb Code     4  stm32f4xx_it.o(.text)
    BusFault_Handler                         0x08005747   Thumb Code     4  stm32f4xx_it.o(.text)
    UsageFault_Handler                       0x0800574b   Thumb Code     4  stm32f4xx_it.o(.text)
    SVC_Handler                              0x0800574f   Thumb Code     2  stm32f4xx_it.o(.text)
    DebugMon_Handler                         0x08005751   Thumb Code     2  stm32f4xx_it.o(.text)
    SysTick_Handler                          0x08005753   Thumb Code    16  stm32f4xx_it.o(.text)
    sys_led3_task                            0x08005765   Thumb Code    22  led_task.o(.text)
    sys_led4_task                            0x0800577b   Thumb Code    22  led_task.o(.text)
    led_task                                 0x08005791   Thumb Code    76  led_task.o(.text)
    __use_no_semihosting                     0x08005835   Thumb Code     2  use_no_semi_2.o(.text)
    __2printf                                0x08005839   Thumb Code    20  noretval__2printf.o(.text)
    __use_two_region_memory                  0x08005851   Thumb Code     2  heapauxi.o(.text)
    __rt_heap_escrow$2region                 0x08005853   Thumb Code     2  heapauxi.o(.text)
    __rt_heap_expand$2region                 0x08005855   Thumb Code     2  heapauxi.o(.text)
    __I$use$semihosting                      0x08005857   Thumb Code     0  use_no_semi.o(.text)
    __use_no_semihosting_swi                 0x08005857   Thumb Code     2  use_no_semi.o(.text)
    _printf_char_file                        0x08005859   Thumb Code    32  _printf_char_file.o(.text)
    _printf_char_common                      0x08005887   Thumb Code    32  _printf_char_common.o(.text)
    ferror                                   0x080058ad   Thumb Code     8  ferror.o(.text)
    __user_setup_stackheap                   0x080058b5   Thumb Code    74  sys_stackheap_outer.o(.text)
    __printf                                 0x080058ff   Thumb Code    40  __printf_nopercent.o(.text)
    exit                                     0x08005927   Thumb Code    12  exit.o(.text)
    __user_libspace                          0x08005935   Thumb Code     8  libspace.o(.text)
    __user_perproc_libspace                  0x08005935   Thumb Code     0  libspace.o(.text)
    __user_perthread_libspace                0x08005935   Thumb Code     0  libspace.o(.text)
    _fp_init                                 0x0800593d   Thumb Code    10  fpinit.o(x$fpl$fpinit)
    __fplib_config_fpu_vfp                   0x08005945   Thumb Code     0  fpinit.o(x$fpl$fpinit)
    __fplib_config_pureend_doubles           0x08005945   Thumb Code     0  fpinit.o(x$fpl$fpinit)
    Region$$Table$$Base                      0x08005948   Number         0  anon$$obj.o(Region$$Table)
    Region$$Table$$Limit                     0x08005968   Number         0  anon$$obj.o(Region$$Table)
    __stdout                                 0x20000000   Data           4  usart1.o(.data)
    raw_os_active                            0x20000018   Data           1  raw_obj.o(.data)
    idle_task_exit                           0x20000019   Data           1  raw_obj.o(.data)
    raw_sched_lock                           0x2000001a   Data           1  raw_obj.o(.data)
    raw_int_nesting                          0x2000001b   Data           1  raw_obj.o(.data)
    high_ready_obj                           0x2000001c   Data           4  raw_obj.o(.data)
    raw_task_active                          0x20000020   Data           4  raw_obj.o(.data)
    raw_idle_count                           0x20000028   Data           8  raw_obj.o(.data)
    raw_tick_count                           0x20000030   Data           4  raw_obj.o(.data)
    tick_head                                0x20000034   Data           8  raw_obj.o(.data)
    timer_head                               0x2000003c   Data           8  raw_obj.o(.data)
    raw_timer_count                          0x20000044   Data           4  raw_obj.o(.data)
    raw_timer_ctrl                           0x20000048   Data           4  raw_obj.o(.data)
    mutex_recursion_levels                   0x2000004c   Data           1  raw_obj.o(.data)
    mutex_recursion_max_levels               0x2000004d   Data           1  raw_obj.o(.data)
    raw_task_debug                           0x20000050   Data           8  raw_obj.o(.data)
    task_0_event_head                        0x20000058   Data           2  raw_obj.o(.data)
    task_0_event_end                         0x2000005a   Data           2  raw_obj.o(.data)
    task_0_events                            0x2000005c   Data           2  raw_obj.o(.data)
    peak_events                              0x2000005e   Data           2  raw_obj.o(.data)
    task_0_event_handler                     0x20000060   Data           4  raw_obj.o(.data)
    task_0_exit                              0x20000064   Data           1  raw_obj.o(.data)
    free_object_int_msg                      0x20000068   Data           4  raw_obj.o(.data)
    int_msg_full                             0x2000006c   Data           4  raw_obj.o(.data)
    msg_event_handler                        0x20000070   Data           4  raw_obj.o(.data)
    SystemCoreClock                          0x20000074   Data           4  system_stm32f4xx.o(.data)
    AHBPrescTable                            0x20000078   Data          16  system_stm32f4xx.o(.data)
    raw_ready_queue                          0x20000088   Data         508  raw_obj.o(.bss)
    raw_idle_obj                             0x20000284   Data         112  raw_obj.o(.bss)
    idle_stack                               0x200002f4   Data        1024  raw_obj.o(.bss)
    raw_timer_obj                            0x200006f4   Data         112  raw_obj.o(.bss)
    timer_task_stack                         0x20000764   Data        1024  raw_obj.o(.bss)
    timer_sem                                0x20000b64   Data          24  raw_obj.o(.bss)
    timer_mutex                              0x20000b7c   Data          28  raw_obj.o(.bss)
    task_0_events_queue                      0x20000b98   Data         384  raw_obj.o(.bss)
    raw_task_0_obj                           0x20000d18   Data         112  raw_obj.o(.bss)
    task_0_stack                             0x20000d88   Data        1024  raw_obj.o(.bss)
    object_int_msg                           0x20001188   Data         480  raw_obj.o(.bss)
    tick_task_obj                            0x20001368   Data         112  raw_obj.o(.bss)
    tick_task_stack                          0x200013d8   Data        1024  raw_obj.o(.bss)
    tick_semaphore_obj                       0x200017d8   Data          24  raw_obj.o(.bss)
    __libspace_start                         0x200028d0   Data          96  libspace.o(.bss)
    __temporary_stack_top$libspace           0x20002930   Data           0  libspace.o(.bss)



==============================================================================

Memory Map of the image

  Image Entry point : 0x080001ad

  Load Region LR_IROM1 (Base: 0x08000000, Size: 0x000059f0, Max: 0x00200000, ABSOLUTE)

    Execution Region ER_IROM1 (Base: 0x08000000, Size: 0x00005968, Max: 0x00200000, ABSOLUTE)

    Base Addr    Size         Type   Attr      Idx    E Section Name        Object

    0x08000000   0x000001ac   Data   RO            3    RESET               startup_stm32f429_439xx.o
    0x080001ac   0x00000008   Code   RO          904  * !!!main             c_w.l(__main.o)
    0x080001b4   0x00000034   Code   RO         1068    !!!scatter          c_w.l(__scatter.o)
    0x080001e8   0x0000001a   Code   RO         1070    !!handler_copy      c_w.l(__scatter_copy.o)
    0x08000202   0x00000002   PAD
    0x08000204   0x0000001c   Code   RO         1072    !!handler_zi        c_w.l(__scatter_zi.o)
    0x08000220   0x00000002   Code   RO          943    .ARM.Collect$$libinit$$00000000  c_w.l(libinit.o)
    0x08000222   0x00000004   Code   RO          949    .ARM.Collect$$libinit$$00000001  c_w.l(libinit2.o)
    0x08000226   0x00000000   Code   RO          952    .ARM.Collect$$libinit$$00000004  c_w.l(libinit2.o)
    0x08000226   0x00000000   Code   RO          955    .ARM.Collect$$libinit$$0000000A  c_w.l(libinit2.o)
    0x08000226   0x00000000   Code   RO          957    .ARM.Collect$$libinit$$0000000C  c_w.l(libinit2.o)
    0x08000226   0x00000000   Code   RO          959    .ARM.Collect$$libinit$$0000000E  c_w.l(libinit2.o)
    0x08000226   0x00000000   Code   RO          962    .ARM.Collect$$libinit$$00000011  c_w.l(libinit2.o)
    0x08000226   0x00000000   Code   RO          964    .ARM.Collect$$libinit$$00000013  c_w.l(libinit2.o)
    0x08000226   0x00000000   Code   RO          966    .ARM.Collect$$libinit$$00000015  c_w.l(libinit2.o)
    0x08000226   0x00000000   Code   RO          968    .ARM.Collect$$libinit$$00000017  c_w.l(libinit2.o)
    0x08000226   0x00000000   Code   RO          970    .ARM.Collect$$libinit$$00000019  c_w.l(libinit2.o)
    0x08000226   0x00000000   Code   RO          972    .ARM.Collect$$libinit$$0000001B  c_w.l(libinit2.o)
    0x08000226   0x00000000   Code   RO          974    .ARM.Collect$$libinit$$0000001D  c_w.l(libinit2.o)
    0x08000226   0x00000000   Code   RO          976    .ARM.Collect$$libinit$$0000001F  c_w.l(libinit2.o)
    0x08000226   0x00000000   Code   RO          978    .ARM.Collect$$libinit$$00000021  c_w.l(libinit2.o)
    0x08000226   0x00000000   Code   RO          980    .ARM.Collect$$libinit$$00000023  c_w.l(libinit2.o)
    0x08000226   0x00000000   Code   RO          982    .ARM.Collect$$libinit$$00000025  c_w.l(libinit2.o)
    0x08000226   0x00000000   Code   RO          986    .ARM.Collect$$libinit$$0000002C  c_w.l(libinit2.o)
    0x08000226   0x00000000   Code   RO          988    .ARM.Collect$$libinit$$0000002E  c_w.l(libinit2.o)
    0x08000226   0x00000000   Code   RO          990    .ARM.Collect$$libinit$$00000030  c_w.l(libinit2.o)
    0x08000226   0x00000000   Code   RO          992    .ARM.Collect$$libinit$$00000032  c_w.l(libinit2.o)
    0x08000226   0x00000002   Code   RO          993    .ARM.Collect$$libinit$$00000033  c_w.l(libinit2.o)
    0x08000228   0x00000002   Code   RO         1011    .ARM.Collect$$libshutdown$$00000000  c_w.l(libshutdown.o)
    0x0800022a   0x00000000   Code   RO         1022    .ARM.Collect$$libshutdown$$00000003  c_w.l(libshutdown2.o)
    0x0800022a   0x00000000   Code   RO         1025    .ARM.Collect$$libshutdown$$00000006  c_w.l(libshutdown2.o)
    0x0800022a   0x00000000   Code   RO         1028    .ARM.Collect$$libshutdown$$00000009  c_w.l(libshutdown2.o)
    0x0800022a   0x00000000   Code   RO         1030    .ARM.Collect$$libshutdown$$0000000B  c_w.l(libshutdown2.o)
    0x0800022a   0x00000000   Code   RO         1033    .ARM.Collect$$libshutdown$$0000000E  c_w.l(libshutdown2.o)
    0x0800022a   0x00000002   Code   RO         1034    .ARM.Collect$$libshutdown$$0000000F  c_w.l(libshutdown2.o)
    0x0800022c   0x00000000   Code   RO          908    .ARM.Collect$$rtentry$$00000000  c_w.l(__rtentry.o)
    0x0800022c   0x00000000   Code   RO          912    .ARM.Collect$$rtentry$$00000002  c_w.l(__rtentry2.o)
    0x0800022c   0x00000006   Code   RO          924    .ARM.Collect$$rtentry$$00000004  c_w.l(__rtentry4.o)
    0x08000232   0x00000000   Code   RO          914    .ARM.Collect$$rtentry$$00000009  c_w.l(__rtentry2.o)
    0x08000232   0x00000004   Code   RO          915    .ARM.Collect$$rtentry$$0000000A  c_w.l(__rtentry2.o)
    0x08000236   0x00000000   Code   RO          917    .ARM.Collect$$rtentry$$0000000C  c_w.l(__rtentry2.o)
    0x08000236   0x00000008   Code   RO          918    .ARM.Collect$$rtentry$$0000000D  c_w.l(__rtentry2.o)
    0x0800023e   0x00000002   Code   RO          947    .ARM.Collect$$rtexit$$00000000  c_w.l(rtexit.o)
    0x08000240   0x00000000   Code   RO          995    .ARM.Collect$$rtexit$$00000002  c_w.l(rtexit2.o)
    0x08000240   0x00000004   Code   RO          996    .ARM.Collect$$rtexit$$00000003  c_w.l(rtexit2.o)
    0x08000244   0x00000006   Code   RO          997    .ARM.Collect$$rtexit$$00000004  c_w.l(rtexit2.o)
    0x0800024a   0x00000002   PAD
    0x0800024c   0x00000040   Code   RO            4    .text               startup_stm32f429_439xx.o
    0x0800028c   0x0000005c   Code   RO           12    .text               sys.o
    0x080002e8   0x00000118   Code   RO          192    .text               usart1.o
    0x08000400   0x00000294   Code   RO          223    .text               stm32f4xx_gpio.o
    0x08000694   0x00000638   Code   RO          243    .text               stm32f4xx_rcc.o
    0x08000ccc   0x000000e0   Code   RO          265    .text               misc.o
    0x08000dac   0x00000454   Code   RO          285    .text               stm32f4xx_usart.o
    0x08001200   0x000000f4   Code   RO          305    .text               led.o
    0x080012f4   0x00000408   Code   RO          350    .text               raw_event.o
    0x080016fc   0x00000030   Code   RO          405    .text               raw_idle.o
    0x0800172c   0x00000678   Code   RO          435    .text               raw_mutex.o
    0x08001da4   0x0000033c   Code   RO          460    .text               raw_pend.o
    0x080020e0   0x0000077c   Code   RO          515    .text               raw_queue.o
    0x0800285c   0x0000071c   Code   RO          539    .text               raw_queue_size.o
    0x08002f78   0x0000024c   Code   RO          551    .text               raw_sched.o
    0x080031c4   0x00000560   Code   RO          563    .text               raw_sem.o
    0x08003724   0x0000003c   Code   RO          575    .text               raw_stat.o
    0x08003760   0x0000024c   Code   RO          593    .text               raw_system.o
    0x080039ac   0x00000ce0   Code   RO          605    .text               raw_task.o
    0x0800468c   0x00000508   Code   RO          660    .text               raw_task_0.o
    0x08004b94   0x0000005c   Code   RO          684    .text               raw_task_sem.o
    0x08004bf0   0x0000025c   Code   RO          696    .text               raw_tick.o
    0x08004e4c   0x000003ec   Code   RO          751    .text               raw_timer.o
    0x08005238   0x000000ac   Code   RO          763    .text               cpu.o
    0x080052e4   0x000001b8   Code   RO          766    .text               port.o
    0x0800549c   0x00000012   Code   RO          778    .text               port_hook.o
    0x080054ae   0x00000002   PAD
    0x080054b0   0x00000038   Code   RO          798    .text               main.o
    0x080054e8   0x00000244   Code   RO          825    .text               system_stm32f4xx.o
    0x0800572c   0x00000036   Code   RO          851    .text               stm32f4xx_it.o
    0x08005762   0x00000002   PAD
    0x08005764   0x000000d0   Code   RO          874    .text               led_task.o
    0x08005834   0x00000002   Code   RO          896    .text               c_w.l(use_no_semi_2.o)
    0x08005836   0x00000002   PAD
    0x08005838   0x00000018   Code   RO          900    .text               c_w.l(noretval__2printf.o)
    0x08005850   0x00000006   Code   RO          902    .text               c_w.l(heapauxi.o)
    0x08005856   0x00000002   Code   RO          906    .text               c_w.l(use_no_semi.o)
    0x08005858   0x00000024   Code   RO          909    .text               c_w.l(_printf_char_file.o)
    0x0800587c   0x00000030   Code   RO          926    .text               c_w.l(_printf_char_common.o)
    0x080058ac   0x00000008   Code   RO          928    .text               c_w.l(ferror.o)
    0x080058b4   0x0000004a   Code   RO          932    .text               c_w.l(sys_stackheap_outer.o)
    0x080058fe   0x00000028   Code   RO          934    .text               c_w.l(__printf_nopercent.o)
    0x08005926   0x0000000c   Code   RO          936    .text               c_w.l(exit.o)
    0x08005932   0x00000002   PAD
    0x08005934   0x00000008   Code   RO          944    .text               c_w.l(libspace.o)
    0x0800593c   0x0000000a   Code   RO         1003    x$fpl$fpinit        fz_wm.l(fpinit.o)
    0x08005946   0x00000002   PAD
    0x08005948   0x00000020   Data   RO         1066    Region$$Table       anon$$obj.o


    Execution Region RW_IRAM1 (Base: 0x20000000, Size: 0x00002f30, Max: 0x00030000, ABSOLUTE)

    Base Addr    Size         Type   Attr      Idx    E Section Name        Object

    0x20000000   0x00000004   Data   RW          193    .data               usart1.o
    0x20000004   0x00000010   Data   RW          244    .data               stm32f4xx_rcc.o
    0x20000014   0x00000004   PAD
    0x20000018   0x0000005c   Data   RW          448    .data               raw_obj.o
    0x20000074   0x00000014   Data   RW          826    .data               system_stm32f4xx.o
    0x20000088   0x00001768   Zero   RW          447    .bss                raw_obj.o
    0x200017f0   0x000010e0   Zero   RW          875    .bss                led_task.o
    0x200028d0   0x00000060   Zero   RW          945    .bss                c_w.l(libspace.o)
    0x20002930   0x00000200   Zero   RW            2    HEAP                startup_stm32f429_439xx.o
    0x20002b30   0x00000400   Zero   RW            1    STACK               startup_stm32f429_439xx.o


==============================================================================

Image component sizes


      Code (inc. data)   RO Data    RW Data    ZI Data      Debug   Object Name

       172         16          0          0          0        320   cpu.o
       244          4          0          0          0       1109   led.o
       208         88          0          0       4320       1443   led_task.o
        56         16          0          0          0        499   main.o
       224         20          0          0          0       1961   misc.o
       440          0          0          0          0       1422   port.o
        18          0          0          0          0       1731   port_hook.o
      1032         12          0          0          0       8842   raw_event.o
        48          6          0          0          0        560   raw_idle.o
      1656         26          0          0          0       5329   raw_mutex.o
         0          0          0         92       5992       2410   raw_obj.o
       828         20          0          0          0       9426   raw_pend.o
      1916         20          0          0          0       6057   raw_queue.o
      1820         24          0          0          0       6031   raw_queue_size.o
       588         70          0          0          0       1974   raw_sched.o
      1376         20          0          0          0       4548   raw_sem.o
        60          4          0          0          0        966   raw_stat.o
       588         30          0          0          0       3519   raw_system.o
      3296        112          0          0          0      13955   raw_task.o
      1288        130          0          0          0       4265   raw_task_0.o
        92          6          0          0          0       1935   raw_task_sem.o
       604         78          0          0          0       7528   raw_tick.o
      1004         60          0          0          0       4663   raw_timer.o
        64         26        428          0       1536        872   startup_stm32f429_439xx.o
       660         44          0          0          0       4241   stm32f4xx_gpio.o
        54          0          0          0          0       1751   stm32f4xx_it.o
      1592         54          0         16          0      12966   stm32f4xx_rcc.o
      1108         34          0          0          0       7940   stm32f4xx_usart.o
        92         12          0          0          0     300901   sys.o
       580         46          0         20          0       1871   system_stm32f4xx.o
       280          8          0          4          0       3230   usart1.o

    ----------------------------------------------------------------------
     21992        986        460        136      11848     424265   Object Totals
         0          0         32          0          0          0   (incl. Generated)
         4          0          0          4          0          0   (incl. Padding)

    ----------------------------------------------------------------------

      Code (inc. data)   RO Data    RW Data    ZI Data      Debug   Library Member Name

         8          0          0          0          0         68   __main.o
        40          0          0          0          0         84   __printf_nopercent.o
         0          0          0          0          0          0   __rtentry.o
        12          0          0          0          0          0   __rtentry2.o
         6          0          0          0          0          0   __rtentry4.o
        52          8          0          0          0          0   __scatter.o
        26          0          0          0          0          0   __scatter_copy.o
        28          0          0          0          0          0   __scatter_zi.o
        48          6          0          0          0         96   _printf_char_common.o
        36          4          0          0          0         80   _printf_char_file.o
        12          0          0          0          0         72   exit.o
         8          0          0          0          0         68   ferror.o
         6          0          0          0          0        152   heapauxi.o
         2          0          0          0          0          0   libinit.o
         6          0          0          0          0          0   libinit2.o
         2          0          0          0          0          0   libshutdown.o
         2          0          0          0          0          0   libshutdown2.o
         8          4          0          0         96         68   libspace.o
        24          4          0          0          0         84   noretval__2printf.o
         2          0          0          0          0          0   rtexit.o
        10          0          0          0          0          0   rtexit2.o
        74          0          0          0          0         80   sys_stackheap_outer.o
         2          0          0          0          0         68   use_no_semi.o
         2          0          0          0          0         68   use_no_semi_2.o
        10          0          0          0          0        116   fpinit.o

    ----------------------------------------------------------------------
       436         26          0          0         96       1104   Library Totals
        10          0          0          0          0          0   (incl. Padding)

    ----------------------------------------------------------------------

      Code (inc. data)   RO Data    RW Data    ZI Data      Debug   Library Name

       416         26          0          0         96        988   c_w.l
        10          0          0          0          0        116   fz_wm.l

    ----------------------------------------------------------------------
       436         26          0          0         96       1104   Library Totals

    ----------------------------------------------------------------------

==============================================================================


      Code (inc. data)   RO Data    RW Data    ZI Data      Debug   

     22428       1012        460        136      11944     419853   Grand Totals
     22428       1012        460        136      11944     419853   ELF Image Totals
     22428       1012        460        136          0          0   ROM Totals

==============================================================================

    Total RO  Size (Code + RO Data)                22888 (  22.35kB)
    Total RW  Size (RW Data + ZI Data)             12080 (  11.80kB)
    Total ROM Size (Code + RO Data + RW Data)      23024 (  22.48kB)

==============================================================================

